9996028101012023091900000100000002825350000002SERVICIO            20230919                                                                                                                                                       
0100001910369755136956280699010000000000121020230922000000000820354631440CONSUMIDORFINALA123/2023/0003                                                                                                                           
0100001910369755136956280699010000000282414020230922000000000820354631440CONSUMIDORFINALA123/2023/0004                                                                                                                           
