9996028101012023100300000100000002825350000002SERVICIO            20231003                                                                                                                                                       
0100001910369755136956280699010000000000121020231006000000000820354631440ALANGON         12320230003                                                                                                                             
0100001910369755136956280699010000000282414020231006000000000820354631440ALANGON         12320230004                                                                                                                             
