9996028101012023101600000100000002825350000002SERVICIO            20231016                                                                                                                                                       
0000000009900990000910290921010000000000121020231019000000000820354631440CONSUMIDORFINALA12320230003                                                                                                                             
0000000009900990000910290921010000000282414020231019000000000820354631440CONSUMIDORFINALA12320230004                                                                                                                             
