9996028101012023100900000100000002825350000002SERVICIO            20231009                                                                                                                                                       
0100001910369755136956280699010000000000121020231012000000000820354631440ALANGON         12320230003                                                                                                                             
0100001910369755136956280699010000000282414020231012000000000820354631440ALANGON         12320230004                                                                                                                             
