9996028101012024020600000100000002825350000002SERVICIO            20240206                                                                                                                                                       
0000000009900990000910290921010000000000121020240209000000000820354631440CONSUMIDORFINALA32                                                                                                                                      
0000000009900990000910290921010000000282414020240209000000000820354631440CONSUMIDORFINALA31                                                                                                                                      
