9996028101012024020500000100000002825350000002SERVICIO            20240205                                                                                                                                                       
0000000009900990000910290921010000000000121020240208000000000820354631440CONSUMIDORFINALA32                                                                                                                                      
0000000009900990000910290921010000000282414020240208000000000820354631440CONSUMIDORFINALA31                                                                                                                                      
