1235441155242024020400000100000002825350000002SERVICIO            20240204                                                                                                                                                       
0000000009900990000910290921010000000000121020240207000000000820354631440CONSUMIDORFINALA32                                                                                                                                      
0000000009900990000910290921010000000282414020240207000000000820354631440CONSUMIDORFINALA31                                                                                                                                      
